:100000000C942A000C9447000C9447000C94470071
:100010000C9447000C9447000C9447000C94470044
:100020000C9447000C9447000C9447000C94470034
:100030000C9447000C9447000C9447000C94470024
:100040000C9447000C9447000C9447000C94470014
:100050000C94470011241FBECFE5D4E0DEBFCDBF16
:1000600010E0A0E6B0E0EAEDF0E002C005900D92ED
:10007000A036B107D9F710E0A0E6B0E001C01D92AC
:10008000A036B107E1F70E945A000C946B000C9463
:10009000000083E389B988E18AB986E880BD0895C4
:1000A0008CB95E9BFECF08958CB1809300005F9B5E
:1000B000FECF089582E081BB8FEF8ABB0E9449008A
:1000C000CFE00E945400809300008E3611F4CBBB29
:0A00D000F8CF1BBAF6CFF894FFCF6B
:00000001FF
